:020000022000DC
:1060000000000420B5620200DD620200DF620200CF
:10601000E1620200E3620200E562020000000000AB
:10602000000000000000000000000000E762020025
:10603000E962020000000000EB620200ED62020073
:1060400005A40200EF62020069AA0200EF620200EA
:10605000EF620200EF62020065A70200EF62020039
:10606000EF620200EF620200EF620200EF620200E4
:10607000EF620200EF620200EF620200EF620200D4
:10608000EF62020009810200EF620200EF6202008B
:1060900049810200EF620200ADD30200EF6202000C
:1060A000EF620200EF620200EF620200EF620200A4
:1060B000EF620200EF62020000000000000000003A
:1060C000EF620200EF620200EF620200EF62020084
:1060D000EF620200EF620200EF620200EF62020074
:1060E000EF620200EF620200EF62020000000000B7
:1060F00000000000EF62020000000000EF620200FA
:10610000000000000000000000000000000000008F
:10611000000000000000000000000000000000007F
:10612000000000000000000000000000000000006F
:10613000000000000000000000000000000000005F
:10614000000000000000000000000000000000004F
:10615000000000000000000000000000000000003F
:10616000000000000000000000000000000000002F
:10617000000000000000000000000000000000001F
:10618000000000000000000000000000000000000F
:1061900000000000000000000000000000000000FF
:1061A00000000000000000000000000000000000EF
:1061B00000000000000000000000000000000000DF
:1061C00000000000000000000000000000000000CF
:1061D00000000000000000000000000000000000BF
:1061E00000000000000000000000000000000000AF
:1061F000000000000000000000000000000000009F
:1062000010B5054C237833B9044B13B10448AFF3F0
:1062100000800123237010BD582C002000000000D6
:1062200044F9020008B5034B1BB103490348AFF31F
:10623000008008BD000000005C2C002044F9020032
:10624000154B002B08BF134B9D46A3F5803A002148
:106250008B460F461348144A121A07F0F0FC0F4BF6
:10626000002B00D098470E4B002B00D09847002001
:10627000002104000D000D48002802D00C48AFF3A7
:10628000008007F08DFC2000290006F033FD07F0A8
:10629000E7FA00BF00000800000004200000000032
:1062A00000000000582C0020043A002000000000EC
:1062B000000000000649074A074B9B1A03DD043B18
:1062C000C858D050FBDC03F03BFAFFF7B9FF0000E1
:1062D00010FA0200E0290020582C0020FEE7FEE71B
:1062E000FEE7FEE7FEE7FEE7FEE7FEE7FEE7FEE786
:1062F00080B584B000AF78607B68002B0AD0074B74
:1063000043F00103FB607B689B01BB60FB68B868DE
:10631000984700E000BF1037BD4680BD90EB0200FB
:1063200080B582B000AF78607B68002B0AD04FF454
:106330007A70FFF7DDFF7B68013B7B607B68002B99
:10634000F5D100E000BF0837BD4680BD80B500AF85
:1063500006F048FE00BF80BD80B588B000AFF86091
:10636000B9607A607B68002B33D00023FB61032384
:10637000BB61BA68FB6913447A681946002006F0CD
:10638000E3FD7861FA697B691344FB617A687B6994
:10639000D31A7B607B69002B13D1104B1B7883F0E1
:1063A0000103DBB2002B13D10120FFF7B9FFBB695A
:1063B000013BBB61BB69002B03D1084B00221A7063
:1063C00007E0064B01221A707B68002BD1D100E058
:1063D00000BF00BF2037BD4680BD00BF742C002029
:1063E00080B584B002AF78603960064B00934023DB
:1063F000054A3968786800F01DF800BF0837BD46C7
:1064000080BD00BF59630200782C002080B483B0A7
:1064100000AF786000BF0C37BD465DF8047B704765
:1064200080B483B000AF786000BF0C37BD465DF824
:10643000047B704780B5A0B002AFF860B9607A60A5
:106440003B60B86802F05BFF7B68FB643B683B65C0
:1064500000237B65002387F858300023FB65D7F8BD
:1064600080303B6600237B6707F134017B6F082295
:10647000B86802F0F7FF08237B67FB6B3B643B8F38
:10648000A7F844307B8FA7F84630002387F84930BF
:1064900097F8343003F00303DBB2012B29D17B6B77
:1064A000C3F39523BB6697F83430C3F3C203DBB262
:1064B00087F84830BB8EC3F38313DBB27B667B6EF9
:1064C0009A0007F11C017B6FB86802F0CBFF7B6E6E
:1064D0009B007A6F13447B6707F1400207F11C01B0
:1064E00007F14C03009313467A6EB86E00F0C0FEBD
:1064F00032E097F8343003F00303DBB2022B2BD1E8
:10650000FB8EC3F389139BB23B6797F83430C3F318
:10651000C203DBB287F848303B6F082B28BF082343
:10652000FB6607F114017B6FFA6EB86802F09AFF00
:106530007A6FFB6E13447B673A6FFB6ED31A3B672F
:1065400007F14C0307F1400207F11400F96E00F067
:1065500031FF3B6F002BDFD1B86802F0E0FE00BFD7
:106560007837BD4680BD80B483B000AF78607B686B
:1065700001225A7200BF0C37BD465DF8047B70479C
:1065800080B582B000AF4FF0FF337B60FFF7DEFED7
:106590000421054800F084FD78600348FFF7E3FF1D
:1065A00000BF0837BD4680BDE029002080B582B01D
:1065B00000AF786039607B681B681B683968786851
:1065C000984700BF0837BD4680BD80B582B000AF98
:1065D00078607B681B685B687868984700BF0837FD
:1065E000BD4680BD80B582B000AF78607B681B6817
:1065F0009B687868984700BF0837BD4680BD80B467
:1066000083B000AF78600B46FB707B68FA781A7233
:1066100000BF0C37BD465DF8047B704780B483B083
:1066200000AF78607B681B7A18460C37BD465DF872
:10663000047B704780B483B000AF78607B68012230
:106640005A7200BF0C37BD465DF8047B704780B4BA
:1066500083B000AF78607B685B7A18460C37BD4624
:106660005DF8047B7047000080B586B000AF7860AD
:1066700039601D4BFF229A601B4B00221A601A4B97
:1066800000225A60184B0022C3F81824164B00222F
:10669000C3F81424144B002283F82024134802F07A
:1066A00095FD38613B69002B01D03B6918E0104A29
:1066B000104BD31ADB08FB6000237B610BE07B6986
:1066C0009B000D4A1344BB607B699AB2BB681A8079
:1066D0007B6901337B617A69FB689A42EFD30023BF
:1066E00018461837BD4680BD882D0020C8F9020025
:1066F000C8F9020050F902001C2C002080B400AF41
:10670000044A054BD31ADB081846BD465DF8047BE6
:10671000704700BFC8F9020050F9020080B586B08A
:1067200000AF78600B46FB70FB78002B1FD0FFF7A3
:10673000E5FF386100237B6113E07B699B000E4A13
:106740001344FB60FB685B881A467B681B689A42AF
:1067500004D17B687A691A60002309E07B69013300
:106760007B617A693B699A42E7D3052300E0002305
:1067700018461837BD4680BD1C2C002080B584B05B
:1067800000AF78600B46FB70FA783B1D1146184647
:10679000FFF7C4FF0346002B07D17B68DB00054AE7
:1067A0001344FB60FB681B6800E0002318461037A9
:1067B000BD4680BD50F9020080B485B000AF78605E
:1067C0000B46FB707B68DB00144A1344BB60FB780C
:1067D000013B032B18D801A252F823F0ED67020009
:1067E000F3670200F9670200016802000223FB73ED
:1067F0000DE00423FB730AE0BB681B79FB7306E022
:10680000BB685B79FB7302E00023FB7300BFFB7B7B
:1068100018461437BD465DF8047B704750F90200F6
:1068200080B485B000AF786039600023FB737B686B
:106830001B7803F00303DBB2002B06D07B681B78C8
:1068400003F00403DBB2002B3CD07B681B7803F021
:106850000403DBB2002B21D07B681B78C3F3010358
:10686000DBB2012B02D0022B0CD029E03B681B6865
:106870007A681288C2F38312D2B213449A1C3B681E
:106880001A601DE03B681B687A685288C2F389125F
:1068900092B213449A1C3B681A6011E03B681A6874
:1068A0007B685B88C3F389139BB219467B681B889E
:1068B000C3F389139BB20B4413445A1C3B681A6000
:1068C0000123FB73FB7B18461437BD465DF8047B40
:1068D0007047000080B58AB000AF0023FB843848C1
:1068E00001F0DEFF374801F0DBFF374B5B683B61AF
:1068F000354B9B68BB613A69BB69134002339B000F
:10690000314A134404333B6207F110031946386AD5
:10691000FFF786FF0346002B09D03A69BB69134095
:1069200002339B00284A134404333B62ECE700BF68
:106930000023FB6111E03B695A1C3A61BA691340BC
:10694000FA699200391D0A441F4902339B000B4427
:106950005B681360FB690133FB61FB69012BEAD9BA
:106960003B79C3F30103DBB2012B0ED0022B00D025
:1069700016E07B89FB84FB88C3F389139BB2033346
:106980009A083B6913443B610AE07B89FB84BB881E
:10699000C3F38313DBB21A463B6913443B6100BF68
:1069A000084801F08AFF78617B69002B02D03B69BF
:1069B000054A5360FB8C18462837BD4680BD00BF92
:1069C000A03100209C310020882D002080B584B0AB
:1069D00000AF0021074801F0E7FEF860FB68BB60EC
:1069E000BB6883F310037B607B6818461037BD4695
:1069F00080BD00BFA431002080B588B000AFF86032
:106A0000B9607A603B60FB681B0CBB61FFF7DEFF7F
:106A1000F861FB6919043B685A1CBB6A1340BA69E8
:106A20000A431B4902339B000B445A603A68BB6A15
:106A3000134002339B00164A134404337B61FB6806
:106A400003F00703D9B27A69137861F3C5031370B1
:106A50007B6803F00F03D9B27A69138861F3891355
:106A60001380BB68C3F315017A69136861F39F2330
:106A700013607A691378012161F3010313707A6955
:106A800013786FF38203137000BF2037BD4680BDBB
:106A9000882D002080B58CB000AFF860B960134637
:106AA000FB71FB680233BB62012387F827300023A8
:106AB000FB7607F11B03184601F05EFE384B1A689F
:106AC000BB681A60364B9A68354B5968344B1B6863
:106AD000CB1A13440133FB6214E00121314801F069
:106AE000ADFEFFF7F7FEF861F9692E4801F0A6FE4A
:106AF0002B4B9A682A4B5968294B1B68CB1A1344B5
:106B00000133FB62BA6AFB6A9A42E6D897F82730EB
:106B1000002B3BD000237B61FB79002B11D03B7D08
:106B2000012262F301033B753B7D43F004033B7597
:106B3000FB6803F00F03DAB2BB8A62F38913BB82EE
:106B400010E03B7D022262F301033B753B7D43F085
:106B500004033B75FB68C3F309039AB2FB8A62F333
:106B60008F13FB820E4B1A680D4B9B681340023348
:106B70009B000B4A134404333B627A693B6A1A60F8
:106B8000074B1A68BB6A1344054A1360FB7E18461C
:106B900001F0FDFD97F8273018463037BD4680BD1F
:106BA000882D0020A431002080B58AB002AFF860A3
:106BB000B9607A603B60204B9B687B6107F11003F2
:106BC000012219463868FFF765FF0346002B24D0E1
:106BD0003B690233FB610023BB6111E0BB699B0091
:106BE0007A681A44FB69591CF96179690B4012688B
:106BF000114902339B000B445A60BB690133BB61EE
:106C0000BA693B689A42E9D33A697B6900931346B3
:106C10003A68B968F868FFF7EFFE074B93F820343D
:106C2000002B05D000BF00F053F80346002BFAD12B
:106C300000BF2037BD4680BD882D002080B582B0C2
:106C400000AF786039600023002239687868FFF768
:106C5000ABFF00BF0837BD4680BD80B586B000AF32
:106C6000F860B9607A607B687B6107F114020123E8
:106C7000B968F868FFF798FF00BF1837BD4680BDB8
:106C800080B586B000AFF860B9607A603B607B6821
:106C90003B613B687B6107F110020223B968F86829
:106CA000FFF782FF00BF1837BD4680BD80B400AF3C
:106CB000064B5A68054B1B689A420CBF0123002300
:106CC000DBB21846BD465DF8047B7047882D002076
:106CD00080B598B000AFFFF7E9FF0346002B01D065
:106CE0000023A1E1904B0022C3F81824BFF34F8F7B
:106CF0008D4B5B683B618C4B9B683B643A693B6C9A
:106D0000134002339B00884A13440433BB640023BE
:106D1000FB650023BB650023FB6307F110031946E5
:106D2000B86CFFF77DFD0346002B14D07E4B1A682C
:106D30003B699A4205D87C4B1B687B4A5360002311
:106D400072E13A693B6C134002339B00764A13446C
:106D50000433BB64E1E700BF00237B6511E03B69BE
:106D60005A1C3A613A6C13407A6D9200391D0A44FC
:106D70006D4902339B000B445B6813607B6D0133EC
:106D80007B657B6D012BEAD93B7903F00303DBB212
:106D9000022B40F09280FB88C3F389139BB27B6384
:106DA000FB88C3F389139BB2502B28BF50239BB29F
:106DB0003B633B6BC3F309039AB2FB8862F38F1307
:106DC000FB803B6B0833FB623B79C3F3C203DBB24E
:106DD000FB63F96A554802F005FAF865FB6D002B74
:106DE00000F0C580F86D02F08AFA391DBB6D0822EB
:106DF000F86D02F024FBBB6D0833BB653B69DA43D9
:106E00003B6C134001339B00BB623A6BBB6A9A42F6
:106E10003DD9BB6A002B08D03A693B6C1340023362
:106E20009B00414A1344043300E0414B3B62BB6A80
:106E3000002B02D0BB6ADBB201E03B6BDBB2FB771D
:106E4000BB6A002B01D03A4B00E00023BB61BB6A58
:106E5000002B06D03B6BDAB2BB6ADBB2D31ADBB2D3
:106E600000E00023FB75FA7FBB6D396AF86D02F014
:106E7000E6FAFB7FBA6D1344BB65BB69002B15D0E6
:106E8000FA7DBB6DB969F86D02F0D9FA0EE03A6986
:106E90003B6C134002339B00234A134404337B6250
:106EA000BB6D3A6B796AF86D02F0C9FA7B6B0333FC
:106EB0009A083B6913443B6159E03B7903F00303B3
:106EC000DBB2012B53D1BB88C3F38313DBB2062B98
:106ED00028BF0623DAB2BB8862F38913BB80BB8864
:106EE000C3F38313DBB20233BB633B79C3F3C20347
:106EF000DBB2FB63BB6B9B0019460C4802F072F9D6
:106F0000F865FB6D002B32D0F86D02F0F8F9391DF1
:106F1000BB6D0822F86D02F092FABB6D0833BB65B9
:106F200000237B651BE000BF882D0020C8F902000C
:106F3000942D00203B695A1C3A613A6C134002338D
:106F40009B003B4A1344191DBB6D0422F86D02F0EF
:106F500076FABB6D0433BB657B6D01337B65BB8803
:106F6000C3F38313DBB21A467B6D9342E2D3FB6D0E
:106F7000002B3CD02E4BD3F810343B652C4BD3F870
:106F80001834002B1AD0F86D02F0C9F946E000233E
:106F900087F84F30386DFFF75AFB0346002B02D0BD
:106FA000012387F84F3097F84F30002B03D0F96D4D
:106FB000386DFFF7FBFA3B6D5B683B653B6D002B63
:106FC000E5D1F86D02F0ABF90023FB70FB1C18460D
:106FD00001F0D2FB164BD3F81834002B02D13B69D9
:106FE000134A5360FB78184601F0D1FB16E0104BB2
:106FF000D3F810347B6405E0786CFFF7F3FA7B6C10
:107000005B687B647B6C002BF6D10A4B1B881B04EE
:1070100043F0020308491846FFF710FEFFF746FE4B
:10702000034683F00103DBB218466037BD4680BDDE
:10703000882D0020302C0020B0EB020080B584B0F9
:1070400000AF0023FB601FE0144BD3F81034BB608B
:107050000123FB710DE0B868FFF7E0FA03461A461A
:10706000FB68934202D10023FB7105E0BB685B68BB
:10707000BB60BB68002BEED1FB79002B01D0FB6815
:1070800007E0FB680133FB60FB68092BDCDD4FF098
:10709000FF3318461037BD4680BD00BF882D002045
:1070A00080B584B000AF78600B46FB70FFF7C6FF79
:1070B000F860FB68B3F1FF3F01D1FB681EE0FB689D
:1070C000DBB219467868FFF79AFA0E4BD3F8103402
:1070D000002B07D10B4A7B68C2F810347B68002272
:1070E0005A600AE0074BD3F810345A687B685A603C
:1070F000044BD3F810347A685A60FB68184610378E
:10710000BD4680BD882D002080B582B000AF0C4BFD
:10711000D3F810347B600A4B012283F8202408E066
:107120007868FFF787FA7868FFF74FFA7B685B6843
:107130007B607B68002BF3D100BF0837BD4680BD64
:10714000882D002080B483B000AF7860396000BF24
:107150000C37BD465DF8047B7047000090B585B0E4
:1071600002AF786039607B68DB88002B0AD07B68CF
:10717000DB881A461F4B009313461F4A1F49386885
:1071800001F072FC7B681B7A052B2ED07B685B7A42
:10719000002B12D07B689B881A467B681B7A1946A5
:1071A0001046FFF709FB03461A46154B53F82230E9
:1071B0001A461449386801F057FC7B681B68194669
:1071C0003868FFF7BFFF7B681B7A1A460E4B53F8EF
:1071D00022407B689B8800211846FFF7CFFA0346C0
:1071E00022460A49386801F03FFC00BF0C37BD4613
:1071F00090BD00BFE4EB0200F4EB02002CEC0200B7
:10720000002A002044EC0200EC29002048EC020097
:1072100080B584B000AFF860B9601346FB71FB68BD
:107220001B7A052B0FD0FB685B7A002B06D00D4B29
:107230001B681A460C49B86801F016FC0B49B8687F
:1072400001F012FC06E0FB79002B03D00749B86877
:1072500001F00AFCB86801F0EEFB00BF1037BD4634
:1072600080BD00BF002A002044EC020054EC020064
:10727000B0B58AB004AFF860B9607A603B60BB6AB1
:107280001B7BFB75BB6A00221A73B96A3868FFF76B
:1072900065FF7B68062B7FD801A252F823F000BF60
:1072A000BD720200C7720200D7720200EB720200C8
:1072B000097302003173020061730200F968B86A51
:1072C00001F0D2FB69E0BB681B681A46F968B86A2E
:1072D00001F0CAFB61E0BB681A68BB6804331B6835
:1072E000F968B86A01F0C0FB57E0BB681A68BB6870
:1072F00004331968BB6808331B6800930B46F968B0
:10730000B86A01F0B1FB48E0BB681968BB68043398
:107310001868BB6808331B68BA680C32126801929F
:10732000009303460A46F968B86A01F09DFB34E011
:10733000BB681868BB6804331C68BB6808331B68EB
:10734000BA680C321268B96810310968029101926A
:10735000009323460246F968B86A01F085FB1CE0F9
:10736000BB681C68BB6804331D68BB6808331B68B6
:10737000BA680C321268B96810310968B8681430FC
:10738000006803900291019200932B462246F9680F
:10739000B86A01F069FB00E000BF0022B96A3868F2
:1073A000FFF736FFBB6AFA7D1A7300BF1837BD4678
:1073B000B0BD00BF80B586B000AFF860B9607A603C
:1073C0003B60BB68082B5BD83B681B7BFB743B684E
:1073D00000221A7339687868FFF7C0FE00237B61CA
:1073E00014E07A69BB689A4209D2FA687B6913444F
:1073F0001B781A462449386801F036FB03E023491C
:10740000386801F031FB7B6901337B617B69072BB5
:10741000E7D91F49386801F027FB00237B6123E08F
:107420007A69BB689A4218D2FA687B6913441B7860
:10743000BB7406F0D9FB0246BB7C013313441B78B6
:1074400003F09703002B01D0BB7C00E02E231A46EB
:107450001049386801F008FB03E00F49386801F073
:1074600003FB7B6901337B617B69072BD8D9012240
:1074700039687868FFF7CCFE3B68FA7C1A7300E045
:1074800000BF1837BD4680BD58EC020060EC02001A
:1074900064EC020068EC02006CEC020080B586B07F
:1074A00000AF78600023FB6000233B617B687B6159
:1074B00007F10C031A46002144F2010000F018F80D
:1074C00000BF1837BD4680BD80B400AFBFF34F8FFB
:1074D000054BDB6803F4E0620349044B1343CB60C4
:1074E000BFF34F8F00BFFDE700ED00E00400FA0599
:1074F00080B584B000AFF860B9607A6072B6FFF70B
:1075000003FE00BFFFF7E4FB0346002BFAD10F4B4D
:107510001B881B0443F001030D491846FFF78EFB3F
:107520000C4B1B6803F00103002B00D000BE074B7F
:107530001B881B0443F0020307491846FFF77EFB34
:10754000FFF7C2FF00BF1037BD4680BD302C0020C2
:1075500070EC0200F0ED00E07CEC020080B485B03D
:1075600000AF78607B689B68FB607B68DA68FB68CB
:10757000D31A18461437BD465DF8047B704780B4B3
:1075800083B000AF78600B46FB707B681A687B683D
:10759000DB68796889880B401344FA781A707B6835
:1075A000DB685A1C7B68DA6000BF0C37BD465DF8AB
:1075B000047B704780B485B000AFF8600B467A60FA
:1075C0007B81FB681A68FB6899687B890B44F968C2
:1075D00089880B4013441A787B681A7000BF1437EF
:1075E000BD465DF8047B704780B582B000AF78601F
:1075F00039603A6800217868FFF7DCFF7B689B6898
:107600005A1C7B689A6000BF0837BD4680BD80B4B5
:1076100085B000AFF860B9601346FB80BB68002BF3
:1076200001D10E2319E0FB88002B05D0FB885A1EE0
:10763000FB881340002B01D009230EE0FB68BA68D9
:107640001A60FB88013B9AB2FB689A80FB680022B3
:107650009A60FB680022DA60002318461437BD46A2
:107660005DF8047B704780B582B000AF78600B4650
:10767000FB707868FFF772FF02467B689B889A422E
:1076800006D8FB7819467868FFF779FF002300E0F9
:10769000042318460837BD4680BD80B582B000AFD0
:1076A000786039607868FFF759FF0346002B05D0F2
:1076B00039687868FFF798FF002300E00523184633
:1076C0000837BD4680BD000080B483B000AF0346DC
:1076D000FB71FB7903F01F02074997F907305B093B
:1076E000012000FA02F241F8232000BF0C37BD460A
:1076F0005DF8047B704700BF00E100E080B483B018
:1077000000AF0346FB71FB7903F01F02074997F9AD
:1077100007305B09012000FA02F2203341F82320F0
:1077200000BF0C37BD465DF8047B704700E100E008
:1077300080B483B000AF0346FB71FB7903F01F02F6
:10774000074997F907305B09012000FA02F240333C
:1077500041F8232000BF0C37BD465DF8047B70471D
:1077600000E100E080B483B000AF0346FB71FB7919
:1077700003F01F02074997F907305B09012000FA5F
:1077800002F2603341F8232000BF0C37BD465DF89C
:10779000047B704700E100E080B483B000AF034693
:1077A0003960FB7197F90730002B0BDA3B68DAB2CE
:1077B0000C49FB7903F00F03043B5201D2B20B4496
:1077C0001A7609E03B68DAB2074997F907305201A7
:1077D000D2B20B4483F8002300BF0C37BD465DF8DE
:1077E000047B704700ED00E000E100E080B584B06C
:1077F00000AF78607B68002B0AD0074B43F0010391
:10780000FB607B689B01BB60FB68B868984700E041
:1078100000BF1037BD4680BD90EC020080B582B03D
:1078200000AF7860054A7B68C2F80835072111204F
:10783000FFF7B2FF00BF0837BD4680BD0010014012
:1078400080B500AF0D4B4FF48032C3F844230B4B8F
:107850004FF48032C3F804231120FFF783FF112077
:10786000FFF732FF054B01221A602F20FFF7BEFF02
:10787000034B01221A7000BF80BD00BF0010014001
:10788000CA32002080B500AF1120FFF737FF0F4B41
:107890004FF48032C3F848230C4B4FF48032C3F8C6
:1078A00008230A4B01225A602F20FFF79FFF074B46
:1078B00001229A60064B00221A602F20FFF796FFE4
:1078C000044B00221A7000BF80BD00BF00100140B1
:1078D000BC320020CA32002080B400AF034BD3F882
:1078E00004351846BD465DF8047B70470010014022
:1078F00080B483B000AF786039607A683B68D31A8F
:1079000023F07F4318460C37BD465DF8047B704773
:1079100080B483B000AF7860044A7B68C2F8403519
:1079200000BF0C37BD465DF8047B70470010014076
:1079300080B487B000AF7860294B1B68002B03D15F
:10794000274A7B68136045E07B681A68244B1B68F4
:107950001B689A4210D8224B1B6819687B681A680A
:107960001F4B1B688A1A1A601D4B1A687B68DA6104
:107970001B4A7B6813602DE07B681B68FB60184B1B
:107980001B687B61164B1B683B6109E03B691B6808
:10799000FA68D31AFB603B697B613B69DB693B6139
:1079A0003B69002B04D03B691B68FA689A42EDD80A
:1079B0003B69002B05D03B691A68FB68D21A3B690A
:1079C0001A607B68FA681A607B683A69DA617B69D9
:1079D0007A68DA6100BF1C37BD465DF8047B7047EA
:1079E000B832002080B586B000AF7860294B1B68A4
:1079F000FB60284B1B687B617B693B6108E03A694F
:107A00007B689A4208D03B697B613B69DB693B61DB
:107A10003B69002BF3D100E000BF3B69002B01D193
:107A2000002333E07A693B699A4214D1194B1B68F1
:107A3000DB69184A1360174B1B68002B0BD1164BE0
:107A400001229A60154B00221A60154B01221A7010
:107A50002F20FFF7CBFE3B691B68BB603B69DA69EF
:107A60007B69DA617B69DB693B613B69002B05D08F
:107A70003B691A68BB681A443B691A60054B1B686E
:107A8000FA689A4214BF01230023DBB21846183764
:107A9000BD4680BDB832002000100140BC3200203D
:107AA000CB32002080B500AF1120FFF741FE00BFB0
:107AB00080BD80B500AF1420FFF73AFE00BF80BD47
:107AC00080B582B000AF78607B685B697A68926944
:107AD0001046984700BF0837BD4680BD80B584B0CA
:107AE00000AF2B4B1B68002B4ED000237B60FFF7B1
:107AF000F3FE0246274B1B6819461046FFF7F8FEB7
:107B0000B860234B1B68FB601DE0FB681B68BA680C
:107B10009A421CD3FB681B68BA68D31ABB60FB6827
:107B20001B687A6813447B60FB683B60FB68DB6919
:107B3000FB603B681B7C002B05D03B6800221A745D
:107B40003868FFF7BDFFFB68002BDED100E000BF07
:107B5000114B1A78114B1B789A420CD10F4B1B78A2
:107B60000133DAB20D4B1A700C4B1B78022B02D189
:107B70000A4B00221A70094B1B781946084A7B6889
:107B800042F82130FFF795FF00BF1037BD4680BD9A
:107B9000B8320020BC320020C8320020C932002098
:107BA000C032002080B483B000AF7860194B1A78DF
:107BB000194B1B789A4223D0164B1B780133DAB24B
:107BC000144B1A70134B1B78022B02D1114B00225D
:107BD0001A70104B1B781A46104B53F822207B6802
:107BE0001A607B681A680E4B1B6813440C4A1360BA
:107BF0000B4B1B6823F07F43094A1360012303E00A
:107C00007B6800221A60002318460C37BD465DF8D9
:107C1000047B7047C8320020C9320020C0320020E7
:107C2000BC32002080B489B000AFF860B9607A60DF
:107C30000023FB6138E0214B1B68BB61BB691B68FB
:107C4000FA689A4206D2BB691A68FB68D21ABB6905
:107C50001A602DE0BB691B68FA68D31AFB60BB6928
:107C60001B68FA691344FB61BB6900221A60134B5D
:107C70001B687B61BB69DB69104A1360BB69DB6809
:107C8000002B11D0BA68FB69134423F07F42BB6913
:107C90005A60BB69DA68BB699A607B681A68BB691D
:107CA000DA617B687A691A60044B1B68002BC2D1C9
:107CB00000BF2437BD465DF8047B7047B832002012
:107CC00080B588B000AF78600023FB77654B1B68F8
:107CD0007B61A9E07B68002B05D07B68BB61BB6939
:107CE000DB697B6060E0604B1B781A4613465B00E3
:107CF0001344DB005C4A134404333B615A4B1B784A
:107D00000133DAB2584B1A70574B1A78564B9B789E
:107D10009A4202D1544B00221A703B695B68BB61E6
:107D20003B691B78022B04D0032B1AD0012B1ED0E9
:107D30001CE03B695B681846FFF754FE0346002BC6
:107D400001D00123FB77BB6900221A746CE0454B1C
:107D50001B68FB60FB6800221A74FB68DB69414A00
:107D60001360404B1B68002BF1D15DE05CE000BF6D
:107D7000BB691B7C002B00D056E03B699A68BB694D
:107D80005A603B69DA68BB699A603B691A69BB69EA
:107D9000DA603B695A69BB699A61344B1B78002BE6
:107DA00002D0BB6900225A60BB695A68304B1B681D
:107DB000D31A23F07F432F4A93420ED8BB695A68E7
:107DC0002B4B1B6819461046FFF792FD0246BB6914
:107DD0009B681A44BB691A6017E0254B1A68BB6997
:107DE0005B6819461046FFF783FDB860BB699B6866
:107DF000BA689A4206D2BB699A68BB68D21ABB6954
:107E00001A6002E0BB6900221A60BB6900225A6056
:107E1000BB6900229A60BB6901221A74BB69002207
:107E2000DA61B869FFF784FD7B68002B7FF452AFFD
:107E30000D4B1A780C4B5B789A427FF44BAFFB7F6B
:107E4000002B04D1074B1B687A699A4201D00123A9
:107E500000E0002303F00103DBB218462037BD46E3
:107E600080BD00BFB8320020AC310020CB320020F2
:107E7000BC320020FEFF7F0090B589B000AF786073
:107E8000274B1B68002B44D0254B1B681B68FB61EC
:107E9000FFF722FDB861234B1B687B617969B869E4
:107EA000FFF726FD034603333B611F4B1B7883F02E
:107EB0000103DBB2002B01D0FFF7C2FC3A69FB697A
:107EC000934238BF13467A6913447B617B6923F080
:107ED0007F437B617869FFF71BFDFFF7FDFCF860CE
:107EE000B969F868FFF704FD0346DC1CB9697869D5
:107EF000FFF7FEFC03469C420DD9FFF7EDFC03465D
:107F00001846FFF705FD2F20FFF770FCFFF7CAFDAD
:107F100001E0FFF7B7FC00BF2437BD4690BD00BFAE
:107F2000B8320020BC320020CA32002080B586B0B2
:107F300000AF00237B600023FB75164B1B683B6181
:107F4000154B1B68FB603B461846FFF72BFE0346AC
:107F5000FB72FB7A002B07D03B683A1D3969184643
:107F6000FFF760FE0123FB757B681846FFF7A8FE4C
:107F70000346002B01D00123FB75FB7D002B02D0B3
:107F8000F868FFF779FF054B00221A7000BF183719
:107F9000BD4680BDBC320020B8320020CB3200206C
:107FA00080B483B000AF0346FB71044AFB79537081
:107FB00000BF0C37BD465DF8047B7047AC31002034
:107FC00080B485B000AF7860134B5B780133FB73EE
:107FD000114B9B78FA7B9A4201D10023FB730E4B25
:107FE0001B78FA7B9A4201D100230EE07B68FA7B72
:107FF0001A70094B5B781A4613465B001344DB008A
:10800000054A13440433BB60BB6818461437BD46A9
:108010005DF8047B704700BFAC31002080B588B0AC
:1080200000AFF860B9607A603B600023FB61002319
:10803000BB7507F11603184600F09EFB07F1170306
:108040001846FFF7BDFFB861BB69002B02D10423BE
:10805000FB6117E0BB6901221A70BB69FA685A60BC
:10806000FFF73AFC0246BB699A60BB69BA68DA60FE
:10807000BB697A681A61BB693A685A61FB7D184628
:10808000FFF78EFFBB7D184600F081FBFB69002BDC
:1080900001D1FFF70EFDFB6918462037BD4680BDB4
:1080A00080B586B000AF78600B46FB7000237B6123
:1080B0000023BB7307F10E03184600F05DFB07F1C8
:1080C0000F031846FFF77CFF38613B69002B02D194
:1080D00004237B6109E03B69FA781A703B697A688E
:1080E0005A60FB7B1846FFF75BFFBB7B184600F02E
:1080F0004EFB7B69002B01D1FFF7DBFC7B69184647
:108100001837BD4680BD000080B500AF0D4B002282
:10811000C3F840210B4B0022C3F84421094B002235
:10812000C3F84821074B0022C3F84C21054B00221D
:10813000C3F80021034B0022C3F80421FFF7CEFC53
:1081400000BF80BD0010014080B500AFFFF7EEFE1C
:1081500000BF80BD80B500AFFFF794FB134B00223A
:108160001A70124B00225A70104B0B229A70104B4F
:1081700000221A600F4B00221A700F4B00221A7057
:108180001420FFF7EFFA07211420FFF705FB142056
:10819000FFF79AFA0020FFF741FBFFF79DFB02462D
:1081A000064B1A600023184680BD00BFAC3100208A
:1081B000B8320020C8320020C9320020BC32002072
:1081C00080B586B000AFF860B9607A60FB687B610B
:1081D000144B9B78002B01D108231EE0FB68002B79
:1081E00001D1082319E0BB68042B01D8072314E050
:1081F0007B695B69002B01D108230EE07B695B7C06
:10820000012B01D1BB6800E000233B617B683A6928
:10821000B9687869FFF702FF034618461837BD466C
:1082200080BD00BFAC31002080B584B000AF786065
:108230007B68FB600D4B9B78002B01D1082310E07D
:108240007B68002B03D0FB685B69002B01D10823FE
:1082500007E0FB6800221A740221F868FFF720FF8C
:10826000034618461037BD4680BD00BFAC31002024
:1082700080B586B000AFF860B9601346FB7100238B
:108280007B61FB681B781A46104B9B5C002B08D067
:10829000FB680433FA79B968184603F0E5FD7861A4
:1082A0000EE0FB681B781A46084B9B5C002B07D13D
:1082B000FB680C33FA79B968184602F08DFF7861D3
:1082C0007B6918461837BD4680BD00BF8439002041
:1082D00080B584B000AF78600023FB737B681B78A7
:1082E0001A460F4B9B5C002B07D07B680433184663
:1082F00003F038FE0346FB730DE07B681B781A46DB
:10830000074B9B5C002B06D17B680C33184602F0B0
:10831000CFFF0346FB73FB7B18461037BD4680BD7D
:108320008439002080B586B000AFF860B96013468C
:10833000FB7100237B61FB681B781A46104B9B5C2A
:10834000002B08D0FB680433FA79B968184603F0AB
:1083500025FE78610EE0FB681B781A46084B9B5C93
:10836000002B07D1FB680C33FA79B968184603F083
:1083700001F878617B6918461837BD4680BD00BF9B
:108380008439002080B485B000AF78607B689B683A
:10839000FB607B68DA68FB68D31A18461437BD4661
:1083A0005DF8047B7047000080B586B000AF786050
:1083B00039607B681B78012B04D0022B38D0002B4E
:1083C00047D05CE07B685B681B7819462E48FFF756
:1083D0004AF978617B69002B0AD001233B737B69E2
:1083E0003B612A4B1B6807F10C02104698470DE0D1
:1083F0002548FFF7C7FF0346002B07D000233B7338
:10840000224B1B6807F10C02104698471E48FFF7E5
:10841000B9FF02461C4B9B889A4205D801221C4991
:108420001C48FFF77FFF2AE01B4B01221A7026E051
:1084300002233B737B68DB683B61012214491548CA
:10844000FFF770FF114B1B6807F10C0210469847AD
:1084500015E012491248FFF720F90346002B05D119
:1084600001220E490B48FFF703FF07E003233B738C
:10847000064B1B6807F10C021046984700BF00BF6F
:108480001837BD4680BD00BFD8320020CC32002056
:10849000D4320020242A0020D5320020D0320020FF
:1084A000E8320020B0B590B000AFF860B9607A60F3
:1084B000FB703D4A7B681360BB68002B01D107232A
:1084C0006EE0BB681968BB685B689BB21A463748A8
:1084D000FFF79DF8F863FB6BBB63BB6B002B01D010
:1084E000BB6B5DE0BB689968BB68DB689BB21A46F2
:1084F0002F48FFF78CF8F863FB6B7B637B6B002BDB
:1085000001D07B6B4CE02B4B07F110041D460FCDC7
:108510000FC495E80F0084E80F00FB685B69BB623D
:10852000FB681B7C002B14BF01230023DBB287F800
:108530002430FB7887F82C30FB685B7C002B01D063
:108540000E2300E0002387F82530FB68DB68BB6161
:10855000FB689B68FB61FB681B687B61FB685B6871
:108560003B6107F11003144A1946144801F078FDE5
:10857000F863FB6B3B633B6B002B01D03B6B0FE065
:108580000F4B00221A70FB681B68B3F1FF3F06D047
:1085900001220C490948FFF7C5FE034600E000230D
:1085A00018464037BD46B0BDCC320020D83200203E
:1085B000E832002098EC0200A9830200242A00205F
:1085C000D5320020D432002080B586B000AF78606C
:1085D000104B1B78FB7579680F48FFF75EF8386120
:1085E000FB7D002B10D00B4B00221A7001220B498F
:1085F0000B48FFF797FEF860FB68BB60BB68002B79
:1086000002D0B868FEF74AFF3B6918461837BD46E6
:1086100080BD00BFD5320020D8320020D4320020E7
:10862000242A002080B584B000AF0346FB71FB799B
:1086300019461148FFF717F8F860FB68002B15D1B1
:108640000E48FFF745FE034683F00103DBB2002B23
:108650000CD00B490848FFF720F80346002B05D142
:10866000012207490548FFF703FEF860FB6818463A
:108670001037BD4680BD00BFE8320020242A00200C
:10868000D032002080B483B000AFEFF310833B60A2
:108690003B687B6072B67B6818460C37BD465DF858
:1086A000047B704780B400AF62B600BFBD465DF882
:1086B000047B704780B584B000AF7860FFF7E2FFBD
:1086C000F860164B9B68002B1BD1144B01229A605B
:1086D000134BD3F88020134B1340104A1360104BF8
:1086E000104AC3F880200E4BD3F884300B4A5360F5
:1086F0000B4B4FF0FF32C3F884207B6800221A70C6
:1087000002E07B6801221A70FB68002B01D1FFF7A1
:10871000C9FF002318461037BD4680BD78390020B8
:1087200000E100E0FC06FFBD80B584B000AF034669
:10873000FB710F4B9B68002B15D0FB79002B12D1DE
:10874000FFF7A0FFF8600B4A094B1B681360094A4A
:10875000074B5B685360064B00229A60FB68002B56
:1087600001D1FFF79FFF002318461037BD4680BD9B
:108770007839002000E100E080B582B000AF786079
:108780007868FFF797FF00BF0837BD4680BD80B50A
:1087900082B000AF0346FB71FB791846FFF7C4FFB8
:1087A00000BF0837BD4680BD90B486B000AF78608A
:1087B00039607B683A6853E8004F104643E800018F
:1087C00091F0000FF7D17C613861F9607B69184640
:1087D0001837BD4690BC704790B486B000AF786043
:1087E00039607B683A6853E8004F44EA020043E886
:1087F000000191F0000FF6D17C613861F9603B69AE
:1088000018461837BD4690BC704790B486B000AF8C
:10881000786039607B683A6853E8004F04EA0200E8
:1088200043E8000191F0000FF6D17C613861F960F6
:108830007B6918461837BD4690BC704790B486B027
:1088400000AF786039607B683A6853E8004F04EB0A
:10885000020043E8000191F0000FF6D17C6138611D
:10886000F9603B6918461837BD4690BC704790B414
:1088700086B000AF786039607B683A6853E8004F93
:10888000A4EB020043E8000191F0000FF6D17C61F7
:108890003861F9603B6918461837BD4690BC70478F
:1088A00080B582B000AF786001217868FFF794FF4F
:1088B000034618460837BD4680BD80B582B000AF7C
:1088C000786000217868FFF7A0FF03461846083754
:1088D000BD4680BD80B483B000AF78600B46FB70AE
:1088E0007B68DA68FB787968898A01FB03F31344B3
:1088F00018460C37BD465DF8047B704780B483B0E2
:1089000000AF786039603B687A68D2689B1A7A68F1
:10891000928AB3FBF2F3DBB218460C37BD465DF822
:10892000047B704780B485B000AF78607B68002B13
:1089300001D10E231DE07B689B681A467B685B684B
:10894000D31AFB737B681B687A6852681A6006E06A
:108950007B681A681368591C1160FA7B1A70FB7BDC
:108960005A1EFA73002BF3D17B681B6800221A7120
:10897000002318461437BD465DF8047B704780B568
:1089800084B000AF78600023FB600023BB7207F166
:108990000A031846FFF7F0FE7B681B681A687B68BD
:1089A0005B689A421DD97B681B681A68013A1A6095
:1089B0001B681B7819467868FFF78CFFF8607B68A6
:1089C0009B681A467B681B681B68D31AFB727B681E
:1089D0001B681B79FA7A9A4203D97B681B68FA7A7A
:1089E0001A71BB7A1846FFF7D2FEFB68184610379B
:1089F000BD4680BD90B585B000AF786039603B68FA
:108A0000FB600023FB7207F10B031846FFF7B4FE6F
:108A10007B681B681C68621C1A60F9687868FFF73D
:108A20006DFF03462370FB7A1846FFF7B0FE00BFC8
:108A30001437BD4690BD80B582B000AF78607B68CA
:108A40009B68002B0CD07B685B697A6810697A6838
:108A500011687A68926898477B6800229A6000E003
:108A600000BF0837BD4680BD0EB480B585B000AFED
:108A70007860FB69002B0CD00023FB6007F120031A
:108A8000FB6007F10C031A46F969786800F0A8F951
:108A900000E000BF1437BD46BDE8804003B070471A
:108AA00080B582B000AF78600B46FB707B681A68B7
:108AB0007B689B68581C796888601344FA781A7040
:108AC0007B689A687B685B689A4202D37868FFF794
:108AD000B2FF00BF0837BD4680BD80B586B000AF8D
:108AE000F860B9607A603B6000237B613B6803F00B
:108AF0000103002B21D00AE0BB680133BB607B6916
:108B000001337B61FB7C1946F868FFF7C9FFBB683E
:108B10001B78FB74FB7C002BEED106E07B68013BED
:108B20007B602021F868FFF7BBFF7A687B699A4277
:108B30002BD97B68002BF1D127E0BB68002B0BD031
:108B4000B86805F0A0F9786106E07B68013B7B60BE
:108B50002021F868FFF7A4FF7A687B699A420ED952
:108B60007B68002BF1D10AE0BB680133BB607B69F5
:108B700001337B61FB7C1946F868FFF791FFBB6806
:108B80001B78FB74FB7C002BEED100BF1837BD4671
:108B900080BD000080B588B000AFF860B9607A6031
:108BA0003B60BB68FB610123BB6107E0FA697B683E
:108BB000B2FBF3F3FB61BB690133BB61FA697B680C
:108BC0009A42F3D23A68BB699A4201D93B68BB61C9
:108BD000FB6A03F00103002B1FD1BB6A002B1CD0E2
:108BE000FB6A03F00203002B05D03B68002B02D187
:108BF0003023FB7501E02023FB7507E0BB6A013BD6
:108C0000BB62FB7D1946F868FFF74AFFBB6A002B81
:108C100003D0BA69BB6A9A42F0D30123FB613B6877
:108C2000012B03D93B68013B3B6009E0BA68FB6953
:108C3000B2FBF3F33B613A697B689A4200D205E0EC
:108C4000FB697A6802FB03F3FB61E8E7BA68FB693A
:108C5000B2FBF3F33B613B69FA6902FB03F3BA68C9
:108C6000D31ABB60154A3B6913441B781946F86850
:108C7000FFF716FFFA697B68B2FBF3F3FB61FB6950
:108C8000002BE3D1FB6A03F00103002B11D0BB6A78
:108C9000002B0ED006E0BB6A013BBB622021F868C6
:108CA000FFF7FEFEBB6A002B03D0BA69BB6A9A428B
:108CB000F1D300BF2037BD4680BD00BFB8EC020035
:108CC00080B588B002AFF860B9607A603B60BB687D
:108CD000002BB8BF5B423B6101237B6107E07B68EF
:108CE0003A6992FBF3F33B617B6901337B617B68FB
:108CF0003A699A42F3DA3A687B699A4201D93B6849
:108D00007B613B6A002B0AD0BB68002B04DB7B6ACB
:108D100003F00403002B02D03B6A013B3B627B6AF9
:108D200003F00203002B02D03B68002B16D07B6AB5
:108D300003F00103002B11D13B6A002B0ED006E09B
:108D40003B6A013B3B622021F868FFF7A9FE3B6AC2
:108D5000002B03D07A693B6A9A42F1D3BB68002B9F
:108D600007DABB685B42BB602D21F868FFF798FE0D
:108D700008E07B6A03F00403002B03D02B21F86882
:108D8000FFF78EFE7B6A03F00203002B19D07B6A8B
:108D900003F00103002B14D13B68002B11D13B6A77
:108DA000002B0ED006E03B6A013B3B623021F868A5
:108DB000FFF776FE3B6A002B03D07A693B6A9A4242
:108DC000F1D3B9687B6A01933B6A00933B687A6888
:108DD000F868FFF7DFFE00BF1837BD4680BD000012
:108DE00080B58EB002AFF860B9607A60BB68002BC6
:108DF00000F0E881BB681B7887F82F30BB6801332F
:108E0000BB6097F82F30002B00F0D38197F82F30FC
:108E1000252B40F0C28100233B620123BB62BB686B
:108E20001B7887F82F3097F82F302D2B04D0302B5C
:108E30000AD02B2B10D017E03B6A43F001033B62B2
:108E4000BB680133BB6012E03B6A43F002033B6244
:108E5000BB680133BB600AE03B6A43F004033B623A
:108E6000BB680133BB6002E00023BB6200BFBB6A8A
:108E7000002BD4D10023FB6197F82F302A2B0CD183
:108E80007B681B68191D7A6811601B68FA691344B6
:108E9000FB61BB680133BB601AE0BB681B7887F8D5
:108EA0002F3097F82F302F2B12D997F82F30392BDE
:108EB0000ED8BB680133BB60FA6913469B001344AC
:108EC0005B001A4697F82F301344303BFB61D3E721
:108ED00000237B62BB681B7887F82F3097F82F3010
:108EE0002E2B1DD1BB680133BB60BB681B7887F894
:108EF0002F3097F82F302F2B12D997F82F30392B8E
:108F00000ED8BB680133BB607A6A13469B001344DA
:108F10005B001A4697F82F301344303B7B62E4E73E
:108F2000BB681B7887F82F3097F82F306C2B03D055
:108F300097F82F30682B07D1BB680133BB60BB6843
:108F40001B7887F82F30EFE797F82F30253B532B0E
:108F500000F21E8101A252F823F000BF87910200A7
:108F60009191020091910200919102009191020071
:108F70009191020091910200919102009191020061
:108F80009191020091910200919102009191020051
:108F90009191020091910200919102009191020041
:108FA0009191020091910200919102009191020031
:108FB0009191020091910200919102009191020021
:108FC0009191020091910200919102009191020011
:108FD0009191020091910200919102009191020001
:108FE00091910200919102009191020091910200F1
:108FF00091910200919102009191020091910200E1
:1090000091910200919102009191020091910200D0
:1090100091910200919102009191020091910200C0
:10902000919102009191020013910200919102002E
:1090300091910200919102009191020091910200A0
:109040009191020091910200919102009191020090
:1090500091910200AD900200CB900200919102002C
:10906000919102009191020091910200CB90020037
:109070009191020091910200919102009191020060
:10908000919102009191020053910200919102008E
:10909000919102003791020091910200EF9002003D
:1090A0009191020091910200139102007B681B686C
:1090B000191D7A6811601B68BB62BB6AFB75FB7D7A
:1090C0001946F868FFF7ECFC63E07B681B68191D24
:1090D0007A6811601B68BB623B6A0193FB6900936D
:1090E0007B6A0A22B96AF868FFF7EAFD51E07B68FB
:1090F0001B68191D7A6811601B68BB62B96A3B6AFC
:109100000193FB6900937B6A0A22F868FFF742FD2E
:109110003FE07B681B68191D7A6811601B68BB62A1
:10912000B96A3B6A0193FB6900937B6A1022F86875
:10913000FFF730FD2DE07B681B68191D7A68116010
:109140001B68BB613B6AFA69B969F868FFF7C5FC3F
:109150001FE07B681B68191D7A6811601B68BB6281
:109160003021F868FFF79CFC7821F868FFF798FC3D
:10917000B96A002301930823009308231022F8689A
:10918000FFF708FD05E02521F868FFF789FC00E0FE
:1091900000BFBB680133BB6005E097F82F3019466C
:1091A000F868FFF77DFCBB681B78002B7FF422AECC
:1091B00000E000BFFB681B7B002B04D0F868FFF7C2
:1091C0003AFC00E000BF3037BD4680BD80B582B0BC
:1091D00000AF78607868FFF7A5FB034618460837AC
:1091E000BD4680BD80B58AB000AF786039607B68CD
:1091F0009B8A043BFB613A68FB691344DA1CFB69F8
:10920000B2FBF3F3FB767868FFF7B9FB78617B6913
:10921000002B01D1002337E07B6900221A717B69A2
:1092200001225A71FB699AB27B69DA807B697B62A1
:10923000FB7E013B3B617B6A7A681A6000233B62DC
:109240001DE07868FFF79BFBF860FB68002B0ED0F1
:109250007B695B790133DAB27B695A717B6AFA68A0
:109260001A60FB687A681A60FB687B6204E07869C0
:1092700000F00EF8002307E03B6A01333B623A6AD4
:109280003B699A42DDD37B6918462837BD4680BDCD
:1092900080B58AB000AF78607B68FB61FB695B7961
:1092A000FB767B683B62FB7E013B7B6100237B623C
:1092B00005E03B6A1B683B627B6A01337B627A6A2A
:1092C0007B699A42F5D33B6A1B683B617B683B62D2
:1092D00000237B620BE03B6A1B68FB60396A3869DC
:1092E000FFF788FBFB683B627B6A01337B62FB7E96
:1092F0007A6A9A42EFD300BF2837BD4680BD80B559
:1093000084B000AF78607B68FB60FB6804330121A8
:109310001846FFF793FA00BF1037BD4680BD80B5F1
:1093200086B000AF78607B687B617B690433012184
:109330001846FFF79CFA0346FB6007F10C033B61FC
:109340003B691B78002B02D17868FFF7A1FF00BFB3
:109350001837BD4680BD80B58CB000AFF860B960ED
:109360007A603B60FB68BB61BB69DB887B61FB6843
:10937000FB623B681A1D7B69B2FBF3F3BB623B687F
:1093800004337A69B3FBF2F2796901FB02F29B1AAA
:109390007B623A687B681A447B691344DA1C7B69F8
:1093A000B2FBF3F3FB7405E0FB6A1B68FB62BB6A6C
:1093B000013BBB62BB6A002BF6D100233B627A699A
:1093C0007B6AD31AFB61FA697B68934228BF134614
:1093D000FB612DE097F83830002B0BD0BA683B6A60
:1093E000D018FA6A7B6A13440433FA69194604F008
:1093F0001BFC0AE0FA6A7B6A1344181DBA683B6AD0
:109400001344FA69194604F00FFC00237B62FB6ADF
:109410001B68FB627A68FB69D31A7B603A6AFB6956
:1094200013443B627A697B68934228BF1346FB6111
:109430007B68002BCED100BF3037BD4680BD80B5E4
:1094400086B002AFF860B9607A603B600023009399
:109450003B687A68B968F868FFF77DFF00BF10378E
:10946000BD4680BD80B586B002AFF860B9607A6055
:109470003B60012300933B687A68B968F868FFF79E
:109480006AFF00BF1037BD4680BD000080B483B0C6
:1094900000AF0346FB71FB7903F01F02074997F900
:1094A00007305B09012000FA02F2603341F8232003
:1094B00000BF0C37BD465DF8047B704700E100E05B
:1094C00080B483B000AF78607B6800221A60BFF37D
:1094D0005F8F00BF0C37BD465DF8047B704741DFEE
:1094E000704700BF184680B584B000AF0023FB7002
:1094F000FB1C1846FFF740F9F1EE103A7B607B68E1
:10950000FB60FB6823F09F03BB60BB68E1EE103A91
:10951000BFF35F8F2620FFF7B9FFFB781846FFF7F0
:1095200036F900BF1037BD4680BD000080B500AFE2
:10953000064B00221A700648FFF7C2FF054906488D
:1095400000F021F80023184680BD00BFFC32002047
:10955000F8320020D4EC02000033002080B582B045
:1095600000AFFFF7C0FF03F0EDFE0346002B03D072
:10957000FFF7B5FF786002E020BF40BF20BF00BF0B
:109580000837BD4680BD80B483B000AF78603960D5
:109590007B683A681A607B681B681A687B685A6047
:1095A0007B685A687B681B685B689A4202D17B685B
:1095B00000225A6000BF0C37BD465DF8047B70473F
:1095C00080B483B000AF78607B685B68002B14D0F8
:1095D0007B685B681A467B681B689B6813441A4665
:1095E0007B685A607B685A687B681B685B689A4234
:1095F00004D17B6800225A6000E000BF0C37BD46F2
:109600005DF8047B7047000080B584B000AF7860DF
:10961000786800F00DF8F860FB68002B01D0FB685B
:1096200000E0024B18461037BD4680BDE0EC02005A
:1096300080B487B000AF7860174B7B61174B3B61FC
:109640001FE03A697B69D31ADB10DA0F13445B1011
:10965000DB007A691344FB60FB681B68BB60BA6877
:109660007B689A4202D9FB683B610AE0BA687B6872
:109670009A4203D2FB6808337B6102E0FB685B68B7
:1096800004E07A693B699A42DBD3002318461C3711
:10969000BD465DF8047B7047E0F0020008F202006E
:1096A00080B586B000AFF860B9607A6000237B6156
:1096B00009E0BB685A1CBA601B781846FEF7B2FF77
:1096C0007B6901337B617A697B689A42F1DB7B6855
:1096D00018461837BD4680BD80B584B000AFF8602D
:1096E000B9607A6000BFB868FEF76EFF0346052BCD
:1096F000F9D0012318461037BD4680BD80B400AFB5
:10970000BFF34F8F054BDB6803F4E0620349044B62
:109710001343CB60BFF34F8F00BFFDE700ED00E0C8
:109720000400FA0580B400AF034B044A1A6000BF7E
:10973000BD465DF8047B7047382A00200090D003B6
:1097400080B500AF00F026F90346002B0ED04FF095
:1097500080430022C3F80C214FF080430022C3F85D
:1097600010214FF080430022C3F8382500F034F96F
:109770000346002B76D04FF080537D4AD3F8043453
:10978000C2F820354FF08053794AD3F80834C2F834
:1097900024354FF08053764AD3F80C34C2F828357C
:1097A0004FF08053724AD3F81034C2F82C354FF082
:1097B00080536F4AD3F81434C2F830354FF08053D9
:1097C0006B4AD3F81834C2F834354FF08053684AE6
:1097D000D3F81C34C2F840354FF08053644AD3F8B4
:1097E0002034C2F844354FF08053614AD3F8243412
:1097F000C2F848354FF080535D4AD3F82834C2F898
:109800004C354FF080535A4AD3F82C34C2F85035B7
:109810004FF08053564AD3F83034C2F854354FF0E5
:109820008053534AD3F83434C2F860354FF0805334
:109830004F4AD3F83834C2F864354FF080534C4A5D
:10984000D3F83C34C2F868354FF08053484AD3F817
:109850004034C2F86C354FF08053454AD3F8443455
:10986000C2F8703500F0DAF80346002B02D0414B05
:10987000414A1A6000F0E8F80346002B03D03F4B42
:10988000FB22C3F8182500F0F5F80346002B0AD098
:109890003B4B1B6823F00F023A4B1B6803F00F038E
:1098A000374913430B6000F0FBF80346002B03D04D
:1098B000354B4FF400721A6000F008F90346002B94
:1098C0000DD04FF08043D3F8003403F00103002B98
:1098D00005D04FF080436FF00102C3F800242B4BFA
:1098E000D3F88830294A43F47003C2F88830BFF3B4
:1098F0004F8FBFF36F8F4FF01023D3F80032002B40
:1099000005DB4FF01023D3F80432002B2BDA204B69
:109910000122C3F8042500BF1D4BD3F80034002BEF
:10992000FAD04FF010231222C3F8002200BF184BC8
:10993000D3F80034002BFAD04FF010231222C3F8D2
:10994000042200BF124BD3F80034002BFAD0104B86
:109950000022C3F8042500BF0D4BD3F80034002BC0
:10996000FAD0FFF7CBFEFFF7DDFE00BF80BD00BFE2
:1099700000C000408C5600404881030000F00040C9
:10998000E40E0040580200104096024000ED00E056
:1099900000E0014080B400AF0D4B1B68082B11D1D3
:1099A0000C4B1B68002B01D101230CE0094B1B68F9
:1099B000012B01D1012306E0064B1B68022B01D1CC
:1099C000012300E001231846BD465DF8047B704783
:1099D000300100103401001080B400AF0D4B1B6843
:1099E000082B11D10C4B1B68002B01D101230CE07B
:1099F000094B1B68012B01D1012306E0064B1B68B4
:109A0000022B01D1012300E001231846BD465DF879
:109A1000047B7047300100103401001080B400AFA7
:109A2000074B1B68082B05D1064B1B68002B01D187
:109A3000012300E000231846BD465DF8047B704713
:109A4000300100103401001080B400AF074B1B68D8
:109A5000082B05D1064B1B68002B01D1012300E028
:109A600000231846BD465DF8047B704730010010A6
:109A70003401001080B400AF074B1B68082B05D1E0
:109A8000064B1B68002B01D1012300E00023184680
:109A9000BD465DF8047B70473001001034010010B2
:109AA00080B400AF074B1B68082B05D1064B1B6821
:109AB000002B01D1012300E000231846BD465DF8CC
:109AC000047B7047300100103401001080B400AFF7
:109AD0000D4B1B68082B11D10C4B1B68002B01D1BF
:109AE00001230CE0094B1B68012B01D1012306E087
:109AF000064B1B68022B01D1012300E0012318460D
:109B0000BD465DF8047B7047300100103401001041
:109B100080B483B000AF78607B681B681F2B02D8CD
:109B20004FF0A04306E07B681B6803F01F027B68D0
:109B30001A60034B18460C37BD465DF8047B70472E
:109B40000003005080B584B000AF78603B1D18461C
:109B5000FFF7DEFFF8607B68012202FA03F3194683
:109B6000F86800F072F800BF1037BD4680BD80B5C0
:109B700084B000AF78603B1D1846FFF7C9FFF8605E
:109B80007B68012202FA03F31946F86800F06CF8CA
:109B900000BF1037BD4680BD80B584B000AF78608F
:109BA0003B1D1846FFF7B4FFF860FB68D3F8043597
:109BB000BB60BB68DA437B68012101FA03F31A40FA
:109BC000FB68C3F808257B6801229A40BB681A40ED
:109BD000FB68C3F80C2500BF1037BD4680BD80B5BB
:109BE00082B000AF786039603B68002B03D17868A1
:109BF000FFF7BDFF02E07868FFF7A4FF00BF08375A
:109C0000BD4680BD80B584B000AF78603B1D18466E
:109C1000FFF77EFFF860F86800F00AF802467B68FC
:109C200022FA03F303F0010318461037BD4680BD46
:109C300080B483B000AF78607B68D3F804351846F1
:109C40000C37BD465DF8047B704780B483B000AF2D
:109C5000786039607B683A68C3F8082500BF0C3724
:109C6000BD465DF8047B704780B483B000AF786078
:109C700039607B683A68C3F80C2500BF0C37BD46D5
:109C80005DF8047B7047000080B584B000AF786059
:109C90000E4A7B6813441B781846FFF7B3FF034650
:109CA000002B14BF01230023FB73FB7B002B14BF8D
:109CB00001230023DBB283F00103DBB203F00103D5
:109CC000DBB218461037BD4680BD00BF08F2020067
:109CD00080B582B000AF7860054A7B6813441B787A
:109CE00000211846FFF77BFF00BF0837BD4680BD47
:109CF00008F2020080B582B000AF7860054A7B6848
:109D000013441B7801211846FFF769FF00BF08378D
:109D1000BD4680BD08F2020080B582B000AF0023CE
:109D20007B6005E07868FFF7E5FF7B6801337B60C7
:109D30007B68032BF6D900BF0837BD4680BD80B5D0
:109D400082B000AF00237B6005E07868FFF7C0FFBA
:109D50007B6801337B607B68032BF6D900BF083733
:109D6000BD4680BD80B582B000AF7860054A7B6893
:109D700013441B781846FFF70FFF00BF0837BD4696
:109D800080BD00BF08F2020080B483B000AF03467C
:109D9000FB71FB7903F01F02074997F907305B0954
:109DA000012000FA02F2203341F8232000BF0C37D3
:109DB000BD465DF8047B704700E100E080B500AF70
:109DC00000F013FB024B00229A7000BF80BD00BF61
:109DD0000833002080B582B000AF00237B60144BB5
:109DE0001B78002B02D085237B601CE0104B0022E7
:109DF0009A600F4B00225A600D4B00221A610C4BE7
:109E00000022DA600B4800F0C7FA786003F09AFA93
:109E1000034683F00103DBB2002B01D000F0DCFA33
:109E2000034B01221A707B6818460837BD4680BD77
:109E300008330020E99E020080B485B000AF78604E
:109E40007B681B68FB60FB68002B03D0FB681A680B
:109E50007B681A60FB6818461437BD465DF8047BC2
:109E60007047000080B582B000AF0023FB71FB1D7E
:109E70001846FEF781FC094BDB68013B074AD360BB
:109E8000064BDB68002B01D1FFF798FFFB791846E2
:109E9000FEF77DFC00BF0837BD4680BD08330020BB
:109EA00080B584B000AF0346FB71FB79002B02D173
:109EB0000B4BFB6001E00B4BFB60F868FFF7BCFF4E
:109EC000B860BB68002B05D0BB685B68FA791046A8
:109ED0009847F2E700BF00BF1037BD4680BD00BF06
:109EE000103300201833002080B582B000AF034645
:109EF000FB71FB79002B05D1094B01225A70002020
:109F0000FFF7CEFFFB79012B05D1054B01229A709B
:109F10000120FFF7C5FF00BF0837BD4680BD00BF69
:109F20000833002080B582B000AF786039607B686C
:109F3000002B05D1044B01225A700020FFF7B0FF1F
:109F400000BF0837BD4680BD0833002080B584B00F
:109F500000AF03463960FB71FB79012B08D0032B5E
:109F600023D0002B00D025E00020FFF70DFF21E0DB
:109F70000023FB7307F10F031846FEF7FDFB0F4BA1
:109F80001B7883F00103DBB2002B01D0FFF722FF27
:109F90000A4BDB680133094AD360084B01229A70EF
:109FA000FB7B1846FEF7F3FB04E000F015FAFFF721
:109FB00059FF00BF00BF1037BD4680BD08330020E9
:109FC00080B588B000AF786039603B68FB617B6822
:109FD0001B783B737B685B683B617B681B7A3B75D6
:109FE0007B68DB68BB61084AFB6952F8233007498C
:109FF000FA6951F8221007F10C021046984700BF89
:10A000002037BD4680BD00BF1C3300202433002014
:10A0100080B588B000AF786039603B68FB617B68D1
:10A020001B783B737B685B683B617B689B68DBB23A
:10A030003B757B68DB68BB61074AFB6952F82330DC
:10A040000649FA6951F8221007F10C0210469847A8
:10A0500000BF2037BD4680BD1C33002024330020C4
:10A06000B0B58EB000AFF860B9607A60FB681B785D
:10A070003B6329493B6B7A6841F82320BB681A6926
:10A0800026493B6B41F82320BB685B7F1946244A75
:10A090003B6B13440A461A70BB6807F110041D4657
:10A0A0000FCD0FC495E80F0084E80F003B6B3B62B7
:10A0B00000237B63FB681B781A46194B9B5C002BC3
:10A0C0000ED0FB68181D7B68002B01D0154A00E0FC
:10A0D000002207F11003194601F068FE786315E0CD
:10A0E000FB681B781A460E4B9B5C002B0ED1FB685D
:10A0F00003F10C007B68002B01D00B4A00E000222A
:10A1000007F11003194600F0BDFF78637B6B18461A
:10A110003837BD46B0BD00BF1C33002024330020BB
:10A1200084390020C19F020011A0020080B483B0D6
:10A1300000AF0346FB71FB7903F01F02074997F953
:10A1400007305B09012000FA02F241F8232000BF2A
:10A150000C37BD465DF8047B704700BF00E100E0AE
:10A1600080B483B000AF0346FB71FB7903F01F029C
:10A17000074997F907305B09012000FA02F26033C2
:10A1800041F8232000BF0C37BD465DF8047B7047C3
:10A1900000E100E080B483B000AF03463960FB719A
:10A1A00097F90730002B0BDA3B68DAB20C49FB79E0
:10A1B00003F00F03043B5201D2B20B441A7609E0BC
:10A1C0003B68DAB2074997F907305201D2B20B4423
:10A1D00083F8002300BF0C37BD465DF8047B704751
:10A1E00000ED00E000E100E080B582B000AF034682
:10A1F0000A46FB711346BB71BA7997F907301146CD
:10A200001846FFF7C7FF00BF0837BD4680BD80B5C1
:10A2100082B000AF0346FB7197F907301846FFF78D
:10A220009FFF97F907301846FFF780FF00BF0837F8
:10A23000BD4680BD80B483B000AF0346FB71114AB8
:10A2400097F90730002B00DA1F335B115BB252F82D
:10A25000232097F90730594203F01F0301F01F0133
:10A2600058BF4B425BB222FA03F303F00103002B09
:10A2700014BF01230023DBB218460C37BD465DF83E
:10A28000047B704700E100E080B483B000AF7860E9
:10A290004FF080427B68C2F8083300BF0C37BD46E0
:10A2A0005DF8047B704780B483B000AF0346FB7158
:10A2B000FB7903F1804301221A6000BF0C37BD46D1
:10A2C0005DF8047B704780B485B000AF0346FB8027
:10A2D000FB8803F1804300221A60FB8803F180436E
:10A2E0001B68FB60FB6800BF1437BD465DF8047B4C
:10A2F000704780B483B000AF0346FB80FB8803F156
:10A3000080431B68002B14BF01230023DBB21846D7
:10A310000C37BD465DF8047B704780B483B000AF56
:10A320000346FB71FB794FF0804203F00303C2F850
:10A33000183500BF0C37BD465DF8047B704780B40C
:10A3400000AF4FF08043D3F818341B0C03F0010327
:10A35000002B14BF01230023DBB21846BD465DF875
:10A36000047B704780B582B000AF0723FB710020EB
:10A37000FFF760FF034683F00103DBB2002B07D039
:10A38000FB7919460020FFF72FFF0020FFF73FFF62
:10A3900000BF0837BD4680BD80B485B000AF78608F
:10A3A0000023FB600B4B1B79002B02D08523FB6045
:10A3B00008E0084A7B681360064B01221A71054BBE
:10A3C00000225A71FB6818461437BD465DF8047BBD
:10A3D000704700BF2C33002080B500AFFFF7C2FFED
:10A3E0000120FFF79AFF00BF80BD80B500AF0C20B1
:10A3F000FFF759FF00BFFFF7A2FF0346002BFAD17A
:10A4000000BF80BD80B500AF4FF48070FFF771FFD3
:10A410000346002B14D04FF48070FFF754FF012047
:10A42000FFF732FF104B5B7983F00103DBB2002BA7
:10A4300006D00D4B01225A710B4B1B680020984728
:10A440004FF48270FFF755FF0346002B0AD04FF4FC
:10A450008270FFF738FF0220FFF716FF024B1B68E0
:10A460000120984700BF80BD2C33002080B582B00A
:10A4700000AF0346FB80FB88184600F024F8034633
:10A480001B68012B0CBF01230023DBB218460837E1
:10A49000BD4680BD80B584B000AF0346FB80FB881D
:10A4A000184600F010F803461A4600231360FB8894
:10A4B000184600F008F803461B68FB60FB6800BF05
:10A4C0001037BD4680BD80B483B000AF0346FB802B
:10A4D000FB8803F1804303F5C04318460C37BD46A3
:10A4E0005DF8047B7047000080B483B000AF7860F3
:10A4F000054BD3F804237B68134018460C37BD4640
:10A500005DF8047B704700BF0060004080B483B0FA
:10A5100000AF7860074A7B6803F5A27352F82330D6
:10A520001B0A03F03F0318460C37BD465DF8047B59
:10A53000704700BF0060004080B483B000AF786017
:10A54000074A7B6803F5A27352F823301B0C03F013
:10A550000303DBB218460C37BD465DF8047B704739
:10A560000060004080B483B000AF78607B681B68F7
:10A570001F2B02D84FF0A04306E07B681B6803F056
:10A580001F027B681A60034B18460C37BD465DF806
:10A59000047B70470003005080B584B000AF786042
:10A5A0000B46FB703B1D1846FFF7DCFFF8607A682E
:10A5B000FB6802F5E07253F822307A6823F44031E8
:10A5C000FB6802F5E07243F822107A68FB6802F536
:10A5D000E07253F82230FA78120411467A6819436F
:10A5E000FB6802F5E07243F8221000BF1037BD4649
:10A5F00080BD80B584B000AF78603B1D1846FFF782
:10A60000B1FFF8607A68FB6802F5E07253F8223017
:10A610001B0C03F00303DBB218461037BD4680BDA8
:10A6200080B483B000AF78607B68D3F810351846EB
:10A630000C37BD465DF8047B7047000080B588B0DC
:10A6400000AFF860B9607A60134A07F1140392E82A
:10A65000030083E80300FB68FB6112E0FB699B00D9
:10A6600007F12002134453F80C3C1846FFF7D8FFBB
:10A6700002467B681A607B6804337B60FB690133A8
:10A68000FB61FA68BB681344FA699A42E6D300BFDB
:10A690002037BD4680BD00BF1CF2020080B485B0EB
:10A6A00000AF786039603B68FB607B68DB08BB60AB
:10A6B0007B6803F007037B6001227B6802FA03F3E7
:10A6C000F968BA680A441278134018461437BD4630
:10A6D0005DF8047B704780B485B000AF7860396066
:10A6E0003B68FB607B68DB08BB607B6803F00703AB
:10A6F0007B60FA68BB6813441B785AB201217B68FF
:10A7000001FA03F35BB2134359B2FA68BB6813440E
:10A71000CAB21A7000BF1437BD465DF8047B70479B
:10A7200080B483B000AF7860054A7B68134430334F
:10A7300093F9003018460C37BD465DF8047B70472E
:10A740003433002080B483B000AF7860044A7B6863
:10A7500052F8233018460C37BD465DF8047B70472D
:10A760003433002080B598B000AF00233B6507F17B
:10A77000180300221A605A604FF48073A7F85C3007
:10A780000123BB650023FB6421E0B7F85C30184669
:10A79000FFF76CFE0346002B0ED0B86DFFF7A4FE4A
:10A7A0000346002B08D0B7F85C301846FFF772FE5E
:10A7B0003A6DBB6D13433B65BB6D5B00BB65B7F882
:10A7C0005C300433A7F85C30FB6C0133FB64FB6C3A
:10A7D000072BDAD94FF4BE70FFF748FE0346002B73
:10A7E0000ED04FF4BE70FFF755FE3B6D43F00043B3
:10A7F0003B6507F118031A4602210020FFF71EFFF0
:10A800003B6DDBB2002B29D00123BB650023FB6429
:10A8100021E0BA6D3B6D1340002B16D0F86CFFF7AA
:10A8200075FE7864F86CFFF787FE034687F84330BF
:10A83000F86CFFF787FFF863FB6B002B05D097F8E8
:10A840004320FB6B1146786C9847BB6D5B00BB6582
:10A85000FB6C0133FB64FB6C072BDAD93B6D002BDF
:10A8600080F2FB80002387F85F3007F1100300229D
:10A870001A605A6000237B650BE07B6D9B0007F13B
:10A88000600213444FF0FF3243F8582C7B6D0133C4
:10A890007B657B6D012BF0D9002387F85F300023A7
:10A8A000FB647BE06F4AFB6C1344603393F9003028
:10A8B00087F83B3097F83B3023F0C0037B63694A4D
:10A8C000FB6C1344603393F90030B3F1FF3F62D067
:10A8D00007F108031946786BFFF7E0FE0346002BEB
:10A8E00059D097F83B309B0987F83330786BFFF7E6
:10A8F00017FF03461846FFF725FFF862FB6A002B97
:10A9000003D197F83330032B45D197F83330032B1D
:10A9100005D107F110031946786BFFF7DCFE786B61
:10A92000FFF767FE034687F82B3007F11803194637
:10A93000786BFFF7B3FE78627B6A002B03D097F841
:10A940002B30022B06D07B6A002B24D197F82B30BA
:10A95000032B20D197F83330032B13D197F82B30EA
:10A96000022B01D1032300E0022387F8233097F85C
:10A9700023301946786BFFF70FFE97F85F300133ED
:10A9800087F85F30FB6A002B05D097F83320FB6A0D
:10A990001146786B9847FB6C0133FB64FB6C032B0F
:10A9A00080D997F85F30002B52D0012387F84B30C5
:10A9B0003B461A4602210020FFF740FE00237B653C
:10A9C00016E07B6D9B0007F16002134453F8602C86
:10A9D0007B6D9B0007F160010B4453F8483C9A42A1
:10A9E00003D0002387F84B3005E07B6D01337B6596
:10A9F0007B6D012BE5D997F84B30002B03D000235A
:10AA000087F85F3024E000237B651EE07B6D9B00B0
:10AA100007F16002134453F8602C7B6D9B0007F133
:10AA200060010B4443F8482C7B6D9B0007F16002EA
:10AA3000134453F8502C7B6D9B0007F160010B44CD
:10AA400043F8582C7B6D01337B657B6D012BDDD981
:10AA500097F85F30002B7FF41FAF00BF6037BD4613
:10AA600080BD00BF3433002080B500AF024B1B68AF
:10AA7000984700BF80BD00BFA033002080B483B0E2
:10AA800000AF78607B68064A934201D1054B00E035
:10AA9000002318460C37BD465DF8047B704700BFA5
:10AAA00000200040A033002080B586B000AF786061
:10AAB00039607868FFF7E2FF78617B69002B20D06E
:10AAC0000023FB740023FB7207F10B031846FDF70C
:10AAD00053FE7B691B79002B02D00123FB7405E038
:10AAE0007B693A681A607B6901221A71FB7A184601
:10AAF000FDF74DFEFB7C002B03D01123FB60FB68B0
:10AB000002E00023FB60FB6818461837BD4680BD95
:10AB100080B483B000AF0346FB71FB7903F01F02E2
:10AB2000074997F907305B09012000FA02F241F862
:10AB3000232000BF0C37BD465DF8047B704700BF83
:10AB400000E100E080B483B000AF0346FB71FB7905
:10AB500003F01F02074997F907305B09012000FA4B
:10AB600002F2603341F8232000BF0C37BD465DF888
:10AB7000047B704700E100E080B483B000AF03467F
:10AB80003960FB7197F90730002B0BDA3B68DAB2BA
:10AB90000C49FB7903F00F03043B5201D2B20B4482
:10ABA0001A7609E03B68DAB2074997F90730520193
:10ABB000D2B20B4483F8002300BF0C37BD465DF8CA
:10ABC000047B704700ED00E000E100E080B485B058
:10ABD00000AF78607B681B0BFB7397F90F3018464A
:10ABE0001437BD465DF8047B704780B582B000AF76
:10ABF00003460A46FB711346BB71BA7997F90730D1
:10AC000011461846FFF7B8FF00BF0837BD4680BDA4
:10AC100080B582B000AF0346FB7197F90730184644
:10AC2000FFF790FF97F907301846FFF771FF00BF55
:10AC30000837BD4680BD80B485B000AF78600B4654
:10AC40007B807B887A68134400221A607B887A684C
:10AC500013441B68FB60FB6800BF1437BD465DF8FA
:10AC6000047B704780B483B000AF78600B467B8074
:10AC70007B887A6813441B68002B14BF01230023D0
:10AC8000DBB218460C37BD465DF8047B704780B4D4
:10AC900083B000AF786039607B683A68C3F80423FA
:10ACA00000BF0C37BD465DF8047B704780B483B0AD
:10ACB00000AF786039607B68D3F804233B681340A9
:10ACC000002B14BF01230023DBB218460C37BD460E
:10ACD0005DF8047B704780B483B000AF7860396062
:10ACE0007B683A68C3F8082300BF0C37BD465DF89F
:10ACF000047B704780B485B000AF78607B68D3F880
:10AD00008034FB607B68FA68C3F88024FB681846CF
:10AD10001437BD465DF8047B704780B483B000AF44
:10AD200078607B680422C3F8002500BF0C37BD465D
:10AD30005DF8047B704780B485B000AFF860B960FF
:10AD40007A60FB687A68C3F81425FB68BA68C3F8B0
:10AD50000C2500BF1437BD465DF8047B704780B4F6
:10AD600085B000AFF860B9607A60FB68BA68C3F874
:10AD70000825FB687A68C3F8102500BF1437BD4664
:10AD80005DF8047B704780B483B000AF78607B6867
:10AD9000D3F81835DBB218460C37BD465DF8047B96
:10ADA000704780B483B000AF78600B46FB70FA78D0
:10ADB0007B68C3F81C2500BF0C37BD465DF8047BDB
:10ADC000704780B483B000AF78600B46FB70FB78AF
:10ADD0007A68134401221A6000BF0C37BD465DF843
:10ADE000047B704780B483B000AF78600B46FB7083
:10ADF0001346BB70FA78BB781343DBB21A467B6804
:10AE0000C3F86C2500BF0C37BD465DF8047B704766
:10AE100080B483B000AF786039607B683A68C3F86B
:10AE2000242500BF0C37BD465DF8047B7047000049
:10AE300080B483B000AF78607B681B681F2B02D89A
:10AE40004FF0A04306E07B681B6803F01F027B689D
:10AE50001A60034B18460C37BD465DF8047B7047FB
:10AE60000003005080B584B000AF786008461146FA
:10AE70001A460346FB700B46BB7013467B703B1DA6
:10AE80001846FFF7D5FFF860FA78BB785B001A43E5
:10AE90007B789B001A433B7E1B0242EA03013B7F07
:10AEA0001B047A681943FB6802F5E07243F822102C
:10AEB00000BF1037BD4680BD80B584B002AF78605A
:10AEC00000230193002300930023012201217868CD
:10AED000FFF7C8FF00BF0837BD4680BD80B584B00E
:10AEE00002AF78600B46FB70FA78002301930023D1
:10AEF00000931346002200217868FFF7B3FF00BFDC
:10AF00000837BD4680BD80B584B000AF78603B1D7A
:10AF10001846FFF78DFFF8607B68012202FA03F301
:10AF20001946F86800F004F800BF1037BD4680BD30
:10AF300080B483B000AF786039607B683A68C3F84A
:10AF4000082500BF0C37BD465DF8047B704780B50F
:10AF500082B000AF786039603B681B68B3F1FF3F97
:10AF600009D03B681B681846FFF7CDFF3B681B689C
:10AF70001846FFF7A1FF3B685B68B3F1FF3F05D0C0
:10AF80003B685B6800211846FFF7A8FF7B681A68DA
:10AF90003B689B6919461046FFF73AFF7B681868C3
:10AFA0003B68597D3B681B7D1A46FFF71BFF7B689A
:10AFB00018683B6819683B685B681A46FFF7BBFE78
:10AFC0003B681B7D012B22D13B689B68B3F1FF3F9F
:10AFD00005D03B689B6800211846FFF77FFF3B6860
:10AFE000DB68B3F1FF3F09D03B68DB681846FFF729
:10AFF0008AFF3B68DB681846FFF75EFF7B681868CE
:10B000003B68D9683B689B681A46FFF7A8FE00BFFB
:10B010000837BD4680BD000080B582B000AF7860C3
:10B020000B46FB707B681B684FF48E711846FFF768
:10B0300002FE7B681B684FF4A2711846FFF7FBFD08
:10B040007B681B680E491846FFF721FE7B681B686A
:10B050001846FFF7BBFD03461A46FB781946104613
:10B06000FFF7C3FD7B681B681846FFF7AFFD03467B
:10B070001846FFF7CDFD00BF0837BD4680BD00BFB5
:10B080008000020080B586B000AFF860B9607A60D9
:10B09000FB681B791A462C2303FB02F3284A13444E
:10B0A0003B6100237B613B6993F82A30002B03D07E
:10B0B00008237B617B693EE0FB681A68FB681B79AB
:10B0C0001946204B53F8213019461046FFF7ECFC87
:10B0D0000346002B03D011237B617B692BE0B96809
:10B0E000F868FFF734FF3B697A685A60BB681A69F1
:10B0F0003B691A603B695B68002B05D0BB681B7F0E
:10B100001946F868FFF788FFFB681B681846FFF7C9
:10B1100004FE3B6900229A613B690022DA613B69C7
:10B12000002283F829203B6900225A613B690122F1
:10B1300083F82A207B6918461837BD4680BD00BFBA
:10B14000A833002038F2020080B584B000AF7860E8
:10B1500039604FF48E717868FFF76DFD3B689A682F
:10B160003B681B6A13441B78FB733B681B6A5A1CC1
:10B170003B681A62FB7B19467868FFF712FE00BF36
:10B180001037BD4680BD80B582B000AF78603960B1
:10B1900016E03B6893F82830DBB2002B01D0002387
:10B1A00015E04FF48E717868FFF75CFD034683F07D
:10B1B0000103DBB2002BECD139687868FFF7C4FFDC
:10B1C0003B681A6A3B685B699A42EAD301231846D6
:10B1D0000837BD4680BD000080B586B000AFF8607E
:10B1E000B9607A60FB681B791A462C2303FB02F3D3
:10B1F0002E4A13443B61F86800F05AF80346002BCE
:10B2000003D011237B617B694CE03B697A685A610A
:10B210003B69BA689A603B6900221A623B69002266
:10B2200083F8282000237B61FB681B684FF48E7134
:10B230001846FFF700FDFB681B6808211846FFF75A
:10B24000C0FDFB681B6839691846FFF77DFF3B6945
:10B250005B68002B25D1FB681B6839691846FFF72E
:10B2600092FF034683F00103DBB2002B02D00F23D1
:10B270007B6113E000BFFB681B684FF48E711846BA
:10B28000FFF7F0FC034683F00103DBB2002BF2D1A1
:10B29000FB681B680C211846FFF793FD3B690022F1
:10B2A0005A617B6918461837BD4680BDA833002017
:10B2B00080B483B000AF78607B681B791946094A77
:10B2C0002C2303FB01F3134414331B68002B14BF1E
:10B2D00001230023DBB218460C37BD465DF8047B22
:10B2E000704700BFA833002080B582B000AF7860FF
:10B2F0007B681B684FF492711846FFF79CFC7B68D3
:10B300001B684FF484711846FFF795FC7B681B6837
:10B3100000211846FFF755FD00BF0837BD4680BD28
:10B3200090B583B000AF786039603B689B69002BB3
:10B3300008D14FF484717868FFF77DFC7868FFF7D7
:10B3400022FD13E04FF484717868FFF774FC3B68CA
:10B35000DA683B685B6AD4187868FFF714FD034627
:10B3600023703B685B6A5A1C3B685A620C37BD46C7
:10B3700090BD000080B588B000AFF860B9607A6019
:10B38000FB681B791A462C2303FB02F3674A13441C
:10B390007B6100233B777B695B68002B06D0FB68F1
:10B3A0001B684FF401711846FFF795FC7B699B6998
:10B3B000002B14D07B69DB69002B0ED07B695B68A6
:10B3C000002B06D0FB681B684FF401711846FFF78D
:10B3D0005EFC1123BB61BB69A3E001233B773B7F8C
:10B3E00083F00103DBB2002B0CD07B697A689A6191
:10B3F0007B69BA68DA607B6900225A627B69002245
:10B40000DA6105E07B69BA681A617B697A68DA619A
:10B410007B6993F8293083F00103DBB2002B08D05D
:10B420003B7F83F00103DBB2002B02D0F868FFF70B
:10B430005BFF7B695B68002B69D1FB681B684FF47D
:10B44000A2711846FFF7F7FBFB681B684FF4927177
:10B450001846FFF707FC0346FB77FB681B684FF4B1
:10B4600084711846FFF7FEFB0346BB77FB681B6839
:10B470004FF4A2711846FFF7F5FB03467B77BB7FBD
:10B4800083F00103DBB2002B0BD07B7F83F0010341
:10B49000DBB2002B05D0FB7F83F00103DBB2002B76
:10B4A000D2D1FB7F002B0ED17B7F002B0BD1FB6811
:10B4B0001B6879691846FFF733FF7B699A697B69D6
:10B4C0005B6A9A42C0D87B6900229A61FB7F002B9D
:10B4D00003D00323BB61BB6923E07B7F002B03D038
:10B4E0000F23BB61BB691CE07B6993F82930002BFB
:10B4F00006D0FB681B6800211846FFF762FC0DE0D0
:10B50000FB681B6804211846FFF75BFC06E0FB683C
:10B510001B684FF401711846FFF7B9FB0023BB61AC
:10B52000BB6918462037BD4680BD00BFA833002048
:10B5300080B588B000AFF860B9607A6001233B74D1
:10B54000BB68BB617B687B61FB685B68FA681168FC
:10B5500007F110021046984700BF2037BD4680BD56
:10B5600080B586B000AF7860396000233B723B68DD
:10B570003B617B689B68FB607B6800225A617B684B
:10B580005B687A68116807F108021046984700BFA7
:10B590001837BD4680BD80B588B000AF786039608F
:10B5A0004FF400717868FFF781FB0346002B39D018
:10B5B0004FF492717868FFF755FB0346002B31D0AA
:10B5C0004FF492717868FFF736FB4FF40171786899
:10B5D000FFF781FB3B6893F8293083F00103DBB26E
:10B5E000002B03D004217868FFF7EBFB02233B72AA
:10B5F0007868FFF77FFB03467B613B689B693B6193
:10B600003B68DB68FB603B6800229A613B68002274
:10B61000DA613B685B683A68116807F10802104616
:10B62000984752E004217868FFF740FB0346002B5F
:10B630004BD04FF484717868FFF714FB0346002B5E
:10B6400043D039687868FFF76BFE3B689A693B68BE
:10B650005B6A9A4239D13B68DB69002B19D03B68A1
:10B66000DB68FB613B685B6ABB613B68DA693B682E
:10B670009A613B681A693B68DA603B680022DA61CC
:10B680003B6800225A62FA69B9693868FFF750FFCF
:10B690001BE03B6893F8293083F00103DBB2002BF9
:10B6A00003D004217868FFF78CFB4FF401717868B0
:10B6B000FFF711FB3B6800229A613B68596A3B68BF
:10B6C000DB681A463868FFF733FF4FF48E717868ED
:10B6D000FFF7C8FA0346002B22D03B681A6A3B6882
:10B6E0005B699A420DD23B6893F82830DBB283F055
:10B6F0000103DBB2002B04D039687868FFF724FD22
:10B700000EE04FF48E717868FFF795FA3B685B693D
:10B71000002B05D03B685B6919463868FFF720FFAE
:10B720004FF4A2717868FFF79DFA0346002B1CD0F6
:10B730004FF4A2717868FFF77EFA3B6893F82930DE
:10B74000002B03D000217868FFF73BFB3B689B6927
:10B75000002B0AD03B6800229A613B68596A3B681B
:10B76000DB681A463868FFF7E3FE00BF2037BD46A6
:10B7700080BD000080B500AF02490348FFF70BFF12
:10B7800000BF80BDA83300200020004080B483B0FB
:10B7900000AF0346FB71FB7903F01F02074997F9DD
:10B7A00007305B09012000FA02F241F8232000BFB4
:10B7B0000C37BD465DF8047B704700BF00E100E038
:10B7C00080B483B000AF0346FB71FB7903F01F0226
:10B7D000074997F907305B09012000FA02F260334C
:10B7E00041F8232000BF0C37BD465DF8047B70474D
:10B7F00000E100E080B483B000AF03463960FB7124
:10B8000097F90730002B0BDA3B68DAB20C49FB7969
:10B8100003F00F03043B5201D2B20B441A7609E045
:10B820003B68DAB2074997F907305201D2B20B44AC
:10B8300083F8002300BF0C37BD465DF8047B7047DA
:10B8400000ED00E000E100E080B483B000AF78607C
:10B850007B6803F06043B3F1005F0CBF012300235A
:10B86000DBB218460C37BD465DF8047B704780B4E8
:10B8700085B000AF78607B681B0BFB7397F90F30C6
:10B8800018461437BD465DF8047B704780B582B01A
:10B8900000AF03460A46FB711346BB71BA7997F9AC
:10B8A000073011461846FFF7A5FF00BF0837BD4611
:10B8B00080BD80B582B000AF0346FB7197F90730B9
:10B8C0001846FFF77DFF97F907301846FFF75EFF30
:10B8D00000BF0837BD4680BD80B485B000AF78603A
:10B8E0000B467B807B887A68134400221A607B8831
:10B8F0007A6813441B68FB60FB6800BF1437BD46C1
:10B900005DF8047B704780B483B000AF78600B466D
:10B910007B807B887A6813441B68002B14BF01234B
:10B920000023DBB218460C37BD465DF8047B704738
:10B9300080B483B000AF786039607B68D3F80022B0
:10B940003B681A437B68C3F8002200BF0C37BD4632
:10B950005DF8047B704780B483B000AF78603960D5
:10B960007B68D3F800223B68DB431A407B68C3F84E
:10B97000002200BF0C37BD465DF8047B704780B4E1
:10B9800083B000AF786039607B683A68C3F80423FD
:10B9900000BF0C37BD465DF8047B704780B483B0B0
:10B9A00000AF786039607B683A68C3F8082300BF4D
:10B9B0000C37BD465DF8047B704780B485B000AF9E
:10B9C00078607B68D3F88034FB607B68FA68C3F8E2
:10B9D0008024FB6818461437BD465DF8047B704729
:10B9E00080B483B000AF78607B680822C3F800257C
:10B9F00000BF0C37BD465DF8047B704780B485B04E
:10BA000000AFF860B9607A60FB68BA68C3F80C25CB
:10BA1000FB687A68C3F8142500BF1437BD465DF88B
:10BA2000047B704780B485B000AFF860B9607A607D
:10BA3000FB68BA68C3F80825FB687A68C3F8102564
:10BA400000BF1437BD465DF8047B704780B483B0F7
:10BA500000AF78600B46FB70FB787A6813440122D4
:10BA60001A6000BF0C37BD465DF8047B704780B498
:10BA700083B000AF78600B46FB701346BB70FA785A
:10BA8000BB781343DBB21A467B68C3F86C2500BF52
:10BA90000C37BD465DF8047B704780B483B000AFBF
:10BAA000786039607B683A68C3F8242500BF0C379A
:10BAB000BD465DF8047B704780B485B000AFF86088
:10BAC000B9607A60BA68FB68C3F84425FB687A6895
:10BAD000C3F8482500BF1437BD465DF8047B7047A6
